:100000000C9462000C948A000C948A000C948A0070
:100010000C948A000C948A000C948A000C948A0038
:100020000C948A000C948A000C948A000C948A0028
:100030000C948A000C948A000C948A000C948A0018
:100040000C9432020C948A000C94A2020C947C0250
:100050000C948A000C948A000C948A000C948A00F8
:100060000C948A000C948A000000000023002600F3
:10007000290000000000240027002A0000000000E2
:10008000250028002B0004040404040404040202D4
:100090000202020203030303030301020408102007
:1000A0004080010204081020010204081020000012
:1000B0000008000201000003040700000000000027
:1000C0000000D40211241FBECFEFD8E0DEBFCDBFA9
:1000D00011E0A0E0B1E0EAE2F8E002C005900D9284
:1000E000A231B107D9F721E0A2E1B1E001C01D9230
:1000F000A23CB207E1F710E0C2E6D0E004C02197CD
:10010000FE010E940804C136D107C9F70E942D03E1
:100110000C9413040C940000833081F028F4813097
:1001200099F08230A1F008958730A9F08830B9F0B5
:100130008430D1F4809180008F7D03C08091800055
:100140008F7780938000089584B58F7702C084B53F
:100150008F7D84BD08958091B0008F7703C080911A
:10016000B0008F7D8093B00008951F93CF93DF93ED
:10017000282F30E0F901E255FF4F8491F901E6564E
:10018000FF4FD491F901EA57FF4FC491CC23C1F03E
:10019000162F81110E948C00EC2FF0E0EE0FFF1F54
:1001A000E458FF4FA591B4919FB7F894111104C082
:1001B0008C91D095D82302C0EC91DE2BDC939FBFAD
:1001C000DF91CF911F910895CF93DF9390E0FC01D1
:1001D000E656FF4F2491FC01EA57FF4F8491882394
:1001E00061F190E0880F991FFC01EE58FF4FC59117
:1001F000D491FC01E458FF4FA591B491611109C05D
:100200009FB7F8948881209582238883EC912E23D0
:100210000BC0623061F49FB7F8948881322F30951B
:1002200083238883EC912E2B2C939FBF06C08FB71E
:10023000F894E8812E2B28838FBFDF91CF9108950A
:10024000CF92DF92EF92FF920F931F93CF93DF93A2
:100250006C017A018B01C0E0D0E0CE15DF0581F0A2
:10026000D8016D918D01D601ED91FC910190F08145
:10027000E02DC6010995892B11F02196EECF7E0164
:10028000C701DF91CF911F910F91FF90EF90DF9009
:10029000CF900895089580E090E00895FC01538D7B
:1002A000448D252F30E0842F90E0821B930B541750
:1002B00010F0CF96089501970895FC01918D828DDD
:1002C000981761F0828DDF01A80FB11D5D968C91AA
:1002D000928D9F5F9F73928F90E008958FEF9FEFB5
:1002E0000895FC01918D828D981731F0828DE80F71
:1002F000F11D858D90E008958FEF9FEF0895FC012B
:10030000918D228D892F90E0805C9F4F821B9109F7
:100310008F73992708958BE191E00E947F0121E07E
:10032000892B09F420E0822F0895FC01848DDF01E0
:10033000A80FB11DA35ABF4F2C91848D90E0019658
:100340008F739927848FA689B7892C93A089B18947
:100350008C91837080648C93938D848D981306C0E8
:100360000288F389E02D80818F7D80830895EF924C
:10037000FF920F931F93CF93DF93EC0181E0888F5F
:100380009B8D8C8D981305C0E889F989808185FD46
:1003900026C0F62E0B8D10E00F5F1F4F0F73112735
:1003A000E02E8C8DE8120CC00FB607FCFACFE8895E
:1003B000F989808185FFF5CFCE010E949501F1CFAB
:1003C0008B8DFE01E80FF11DE35AFF4FF0829FB7BE
:1003D000F8940B8FEA89FB89808180620AC09FB7FD
:1003E000F894EE89FF896083E889F98980818370B8
:1003F000806480839FBF81E090E0DF91CF911F9167
:100400000F91FF90EF900895CF93DF93EC01888DCB
:100410008823C9F0EA89FB89808185FD05C0A88908
:10042000B9898C9186FD0FC00FB607FCF5CF80818E
:1004300085FFF2CFA889B9898C9185FFEDCFCE01D8
:100440000E949501E7CFDF91CF91089580E090E081
:10045000892B29F00E948B0181110C9400000895D2
:100460000E940E041F920F920FB60F9211242F9329
:100470003F938F939F93AF93BF9380911701909178
:100480001801A0911901B0911A013091160123E0D1
:10049000230F2D3720F40196A11DB11D05C026E8BC
:1004A000230F0296A11DB11D209316018093170101
:1004B00090931801A0931901B0931A018091120131
:1004C00090911301A0911401B09115010196A11D05
:1004D000B11D8093120190931301A0931401B09366
:1004E0001501BF91AF919F918F913F912F910F90E7
:1004F0000FBE0F901F9018951F920F920FB60F927C
:1005000011242F933F934F935F936F937F938F9318
:100510009F93AF93BF93EF93FF938BE191E00E9482
:100520009501FF91EF91BF91AF919F918F917F9135
:100530006F915F914F913F912F910F900FBE0F9050
:100540001F9018951F920F920FB60F9211242F93A0
:100550008F939F93EF93FF93E0912B01F0912C01E8
:100560008081E0913101F091320182FD12C09081D1
:10057000809134018F5F8F7320913501821751F084
:10058000E0913401F0E0E55EFE4F958F80933401F9
:1005900001C08081FF91EF919F918F912F910F90DA
:1005A0000FBE0F901F901895EBE1F1E013821282BD
:1005B00088EE93E0A0E0B0E084839583A683B783C0
:1005C00084E091E09183808385EC90E09587848737
:1005D00084EC90E09787868780EC90E0918B808B0D
:1005E00081EC90E0938B828B82EC90E0958B848BF6
:1005F00086EC90E0978B868B118E128E138E148E64
:100600008DE090E09093C1018093C00161E00E9471
:10061000E4008CE090E09093BF018093BE0161E024
:100620000E94E40085E090E09093BD018093BC01BE
:1006300061E00E94E40086E090E09093BB0180932B
:10064000BA0161E00E94E40083E090E09093B90178
:100650008093B80161E00C94E400789484B58260E2
:1006600084BD84B5816084BD85B5826085BD85B556
:10067000816085BD80916E00816080936E001092D4
:10068000810080918100826080938100809181004F
:1006900081608093810080918000816080938000E0
:1006A0008091B10084608093B1008091B00081603E
:1006B0008093B00080917A00846080937A0080916A
:1006C0007A00826080937A0080917A0081608093C2
:1006D0007A0080917A00806880937A001092C1003D
:1006E00060E080E00E94E40060E082E00E94E400BC
:1006F000E0912B01F0912C0182E08083E0912701B1
:10070000F09128011082E0912901F0912A018FECEB
:10071000808310923301E0912F01F091300186E047
:100720008083E0912D01F0912E0180818061808392
:10073000E0912D01F0912E01808188608083E0910D
:100740002D01F0912E01808180688083E0912D0140
:10075000F0912E0180818F7D808390E4B92E00EB93
:1007600010E02CE9E22E20E0F22E38E8C32E30E033
:10077000D32EB0927C0080917A00806480937A00BE
:1007800080917A0086FDFCCFC0917800809179003D
:10079000D0E0D82BF8018491F701A490F601949051
:1007A0009920A1F081110E948C00E92DF0E0EE0F5C
:1007B000FF1FE859FF4FA591B4918C91A82291E0B9
:1007C00080E009F490E0892E982E02C0812C912CB3
:1007D000C53FD1403CF060E08091B8010E94B50077
:1007E00061E006C061E08091B8010E94B50060E060
:1007F0008091C0010E94B500892811F061E001C01C
:1008000060E08091BE010E94B5000E942602B1CF37
:10081000EE0FFF1F0590F491E02D099481E090E028
:0A082000F8940C941304F894FFCF31
:10082A0000000000B70120014E0104027F015D01B2
:02083A0071014A
:00000001FF
